:020000040800F2
:10000000C00800204102000823150008B9140008A8
:10001000211500086B060008B91800080000000050
:10002000000000000000000000000000271500088C
:100030006D060008000000002515000829150008BD
:100040005B0200085B0200085B0200085B0200081C
:100050005B0200085B0200085B0200085B0200080C
:100060005B0200085B0200085B0200085B020008FC
:100070005B0200085B0200085B0200085B020008EC
:100080005B0200085B0200085B0200080000000041
:100090000000000000000000000000005B020008FB
:1000A0005B0200085B0200085B0200085B020008BC
:1000B0005B0200085B0200085B0200085B020008AC
:1000C0005B0200085B0200085B0200085B0200089C
:1000D0005B0200085B020008AD1800080000000089
:1000E0005B0200085B0200085B02000800000000E1
:1000F0000000000000000000000000005B0200089B
:10010000000000005B0200085B0200085B020008C0
:1001100000000000000000000000000000000000DF
:100120005B0200085B0200085B0200085B0200083B
:100130005B0200080000000000000000000000005A
:100140000000000000000000000000005B0200084A
:100150005B0200085B0200085B0200085B0200080B
:100160005B0200085B0200080000000000000000C5
:10017000000000000000000000000000000000007F
:10018000000000005B02000800000000000000000A
:100190005B0200085B02000800F002F800F041F882
:1001A0000AA090E8000C82448344AAF10107DA45D2
:1001B00001D100F036F8AFF2090EBAE80F0013F0E3
:1001C000010F18BFFB1A43F001031847DC170000AA
:1001D000FC170000103A24BF78C878C1FAD852073B
:1001E00024BF30C830C144BF04680C6070470000B1
:1001F0000023002400250026103A28BF78C1FBD830
:10020000520728BF30C148BF0B607047642900F017
:10021000F780002070471FB501F0B4FB1FBD10B57B
:1002200010BD00F0E8F91146FFF7F5FF01F056FBAD
:1002300000F006FA03B4FFF7F2FF03BC00F00EFA79
:100240000948804709480047FEE7FEE7FEE7FEE76A
:10025000FEE7FEE7FEE7FEE7FEE7FEE704480549A6
:10026000054A064B70470000BD15000899010008BB
:10027000C0020020C0080020C0040020C0040020EC
:1002800053EA020C00F069802DE9F04B4FF00006B4
:10029000002B1FBFB3FA83F503FA05F424FA05F621
:1002A0005E4012BF1643B2FA82F502FA05F4C5F1B8
:1002B00020051EBF22FA05FC44EA0C04203556EA4C
:1002C000044C4FEA144418BF641C4FF000084FF070
:1002D0000009904271EB030C39D3002919BFB1FA20
:1002E00081F701FA07F6B0FA80F700FA07F6C7F1CE
:1002F00020071EBF20FA07FC46EA0C062037B6FB93
:10030000F4FCA7EB0507103F07F01F0BCBF120060D
:100310000CFA0BFB2CFA06F644BFB3460026202F3E
:10032000A4BF5E464FF0000B5BEA060C08BF4FF01F
:10033000010B19EB0B09ABFB027C48EB0608C01B59
:1003400006FB02CC0BFB03CC71EB0C01C1E70B46A7
:10035000024641464846BDE8F08B13B54FF0000019
:100360004FF00001AFF30080BDE81C407047000073
:100370000FB41CB5074B06AA7B446946009005984C
:1003800000F021F90020694600F030F91CBC5DF84E
:1003900014FB0000710200002DE9F0410E460446F6
:1003A000002020622046E168884730B3252805D028
:1003B000D4E901219047206A401CF2E7E168204619
:1003C00000278847050018D0A5F14100192802D858
:1003D00020354FF400673246294620462760FFF754
:1003E00015FF40B1012804D0F61D26F00706083697
:1003F000D8E7361DD6E72846DAE7206ABDE8F0815F
:100400002DE9F0410646002410687529314616A5ED
:1004100010D0AFF30080002802DA404213A507E0B5
:1004200031688A0701D512A502E0490704D511A554
:10043000012401E0AFF3008000210A2206F1240725
:1004400009E0B0FBF2FCB0FBF2F302FB1C00303021
:1004500078541846491C0028F3D123462A463046D2
:10046000BDE8F04100F051B8000000002D00000090
:100470002B0000002000000010B5431C02E010F823
:10048000011B71B18107FAD14FF0013202C88C1AF9
:100490008C4314EAC211F9D0C01A0A0603D0C01E58
:1004A00010BDC01A10BD0A0401D0801E10BD090283
:1004B000FCD0401E10BD4FF0000200B5134694461C
:1004C0009646203922BFA0E80C50A0E80C50B1F1AC
:1004D0002001BFF4F7AF090728BFA0E80C5048BFC0
:1004E0000CC05DF804EB890028BF40F8042B08BF5E
:1004F000704748BF20F8022B11F0804F18BF00F85A
:10050000012B70477047704770472DE9F0470D4643
:1005100099469246044600F124080168880604D5ED
:10052000E06921F01001216000E00120A84201DD16
:10053000471B00E00027A1697A1902EB0900081A9D
:10054000A0612078C00602D42046AFF300800026C8
:1005500008E0D4E901211AF806009047206A401CFF
:10056000761C20624E45F4DB2078C0060AD5204672
:10057000AFF3008006E0D4E9012130209047206AE3
:10058000401C2062381EA7F10107F4DC07E0D4E923
:10059000012118F805009047206A401C2062281E9F
:1005A000A5F10105F3DC2046AFF3008020780006BA
:1005B00002D50220BDE8F0870120FBE701694A1C53
:1005C00002610878704700B58FB0CDE90131002194
:1005D000059105497944CDE9031011466846FFF7B6
:1005E000DBFE0FB000BD0000E5FFFFFF0A6802F868
:1005F000010B0A607047754600F02CF8AE46050006
:100600006946534620F00700854618B020B5FFF72D
:1006100025FEBDE820404FF000064FF000074FF0E8
:1006200000084FF0000B21F00701AC46ACE8C00910
:10063000ACE8C009ACE8C009ACE8C0098D46704719
:1006400010B50446AFF300802046BDE81040FFF728
:10065000F1BD0000004870475C02002001491820ED
:10066000ABBEFEE7260002007047FEE7704772B699
:10067000FEE72DE9F0410446876D00F045F9064696
:1006800094F835000025022806D08020606584F8A3
:1006900034500120BDE8F0812068016821F0160186
:1006A00001602068416921F080014161206C08B936
:1006B000A06C20B12068016821F008010160206869
:1006C000016821F0010101600CE000F01DF9801BC0
:1006D000052807D920206065032084F8350084F8B8
:1006E0003450D7E720680068C007EED194F85C105A
:1006F0003F208840B860012084F8350084F83450E9
:100700000020C7E790F83510022903D08021416509
:1007100001207047052180F835100068016821F03C
:1007200001010160002070472DE9F84FDFF8B8A102
:100730000022012403254FF00F090AF1040BAAF14E
:10074000040E00BF0B6804FA02F63340B34273D1C3
:100750000F7907F00307012F01D0022F16D1876808
:100760004FEA420805FA08FC27EA0C07D1F80CC04A
:100770000CFA08FC4CEA070CC0F808C04768B743FD
:100780000E79C6F3001696403E4346600E79F64356
:10079000B6070DD0C768560005FA06FC27EA0C0715
:1007A000D1F808C00CFA06FC4CEA070CC0F80CC0E3
:1007B0000E7906F00306022E10D1D60800EB86084B
:1007C000D8F8206057074FEAD76C09FA0CF7BE43F8
:1007D0000F6907FA0CF73743C8F8207006684FEA2C
:1007E000420C05FA0CF7BE430F7907F0030707FA2E
:1007F0000CF7374307604E6816F4403F6DD03B4E10
:10080000376847F480473760366822F0030706F4FC
:1008100080460096364E07EB060CDCF80868970712
:100820003F0F09FA07F826EA0806DFF8C8804045B6
:1008300003D14FF000081EE04FE0DFF8BC804045D8
:1008400002D14FF0010816E0DFF8B080404502D138
:100850004FF002080FE0DFF8A880404502D14FF0CA
:10086000030808E0DFF89C80404502D14FF00408FF
:1008700001E04FF0070808FA07F848EA0608CCF844
:100880000888DAF800605746D1F804C09E435FEA52
:10089000CC2C00D51E433E60DBF800605F46D1F8EB
:1008A00004C09E435FEA8C2C00D51E433E60DEF8F8
:1008B00000607746D1F804C09E435FEA8C3C00D5C7
:1008C0001E433E60084F083F3E68D1F804C09E4377
:1008D0005FEACC3C00D51E433E60521C102AFFF458
:1008E00031AFBDE8F88F0000083C014044380240B9
:1008F00000300140000002400004024000080240B5
:10090000000C02400010024001488068704700005F
:100910001400002002488168027811448160704709
:10092000140000200B4810B5016841F4007101600B
:10093000016841F480610160016841F480710160E7
:10094000032000F06FF80F2000F006F800F024F804
:10095000002010BD003C024070B50D4D04464FF420
:100960007A712878B1FBF0F00A490968B1FBF0F020
:1009700000F00AFB48B9102C07D200222146501E75
:1009800000F030F800206C6070BD012070BD0000E8
:1009900014000020200000200A4808B5016841F436
:1009A00080410160006800F4804000900548001F0D
:1009B000016841F080510160006800F080500090B3
:1009C00008BD000044380240002809DB00F01F0287
:1009D000012191404009800000F1E020C0F80011A1
:1009E00070470000F0B40E4B1B680C46C3F30223A3
:1009F000C3F10705042D00D90425191D072901D2CB
:100A0000002300E0DB1E012606FA05F1491E214005
:100A100099409E40761E16403143F0BC00F04DBF19
:100A20000CED00E0064900F0070208684FF6FF03EE
:100A3000184040EA0220034A104308607047000053
:100A40000CED00E00000FA052DE9F0470E46050028
:100A500065D0DFF81481D8F80000F7B200F0070085
:100A6000B04207D288F80070D8F8000000F0070004
:100A7000B04254D128683D4C810712D5400703D5B8
:100A8000206840F4E05020602878000703D52068F3
:100A900040F4604020602068A96820F0F00008431E
:100AA00020602878C0072DD03049686808390128AF
:100AB00012D0022813D0032811D009688907002911
:100AC0002DDA216821F0030101432160FFF71CFFAB
:100AD000814641F2883A0EE009688903EFE7096828
:100AE0008901ECE7FFF710FFA0EB0901514502D99E
:100AF0000320BDE8F0872068696800F00C00B0EBC7
:100B0000810FEFD1D8F80010404601F00701B14243
:100B100007D90770006800F00700B04201D001203B
:100B2000E7E72878400705D52068E96820F4E05019
:100B3000084320602878000706D52068296920F43A
:100B4000604040EAC100206000F038F82168084A9F
:100B5000C1F30311515CC8400649086006480068AB
:100B6000FFF7FAFE0020C4E7003C024008380240CC
:100B70008E190008200000201800002004480549B4
:100B800000680968044AC1F38221515CC84070477B
:100B900020000020083802409E190008044805493A
:100BA00000680968044AC1F34231515CC84070478B
:100BB00020000020083802409E190008154810B592
:100BC000006810F00C02144813D04110042A0FD012
:100BD000082A0ED10F4C241F2268236802F03F021E
:100BE0005B0207D52068C0F38810A0FB010106E076
:100BF000084610BD2168C1F38811A1FB0001002344
:100C0000FFF73EFB2168C1F30141491C4900B0FBDD
:100C1000F1F010BD083802400024F4002DE9F84F2F
:100C200004006ED02078DFF84C93C007A9F10405CA
:100C30004AD009F104000168C1F38101012908D0FB
:100C40000068C0F3810002280AD1D9F800004002F0
:100C500006D52868800337D560680028E1D033E0E6
:100C60006068B0F5803F10D0B0F5A02F286810D094
:100C700020F480302860286820F480202860606894
:100C8000A8B1FFF741FE06460DE0286840F4803029
:100C9000F4E740F480202860F7E700BFFFF734FE58
:100CA000801B642873D828688003F7D50CE0FFF711
:100CB0002BFE064605E000BFFFF726FE801B6428DA
:100CC000F0D828688003F7D42078DFF8AC8280075A
:100CD0004FF0000A3ED5A748001D016811F00C0F27
:100CE00008D00068C0F3810002280BD1D9F80000B9
:100CF000400207D42868800716D5E068012800D193
:100D000012E033E1E068B8B10120C8F80000FFF755
:100D1000FBFD064605E000BFFFF7F6FD801B02283D
:100D2000C0D828688007F7D52868216920F0F80026
:100D300040EAC10028600DE0C8F800A0FFF7E4FD1C
:100D4000064604E0FFF7E0FD801B02281FD8286854
:100D50008007F7D42078000722D5864F874861693D
:100D6000703771B101210160FFF7CEFD064604E046
:100D7000FFF7CAFD801B022809D838688007F7D51D
:100D80000EE0C0F800A0FFF7BFFD064605E082E0D8
:100D9000FFF7BAFD801B02287DD838688007F7D49A
:100DA0002078400768D5DFF8CCB100270BF13C0B69
:100DB000DBF80000C0000BD4DBF8001041F08051DC
:100DC000CBF80010DBF80000012700F08050009005
:100DD0006B4E3068C00510D4306840F480703060CD
:100DE000FFF792FD009005E0FFF78EFD0099401A95
:100DF000022850D83068C005F6D55E4EA0686C3623
:100E000001280FD00528306810D020F00100306094
:100E1000306820F004003060A068B8B1FFF774FDBE
:100E200000900FE0306840F00100F4E740F004006B
:100E30003060F7E7FFF768FD0099411A41F288300A
:100E4000814266D830688007F4D50EE0FFF75CFD7C
:100E5000009007E0FFF758FD0099411A41F28830F1
:100E6000814256D830688007F4D42FB1DBF80010E7
:100E700021F08051CBF80010A069C8B33D49091D8D
:100E80000968C1F3810102294AD00228504607D0DF
:100E9000C8F8600000E03CE0FFF736FD04463BE0A8
:100EA0004746C8F86000FFF72FFD064605E000BF83
:100EB000FFF72AFD801B02282BD828688001F7D471
:100EC000D4E907010843A16A2E4A490802EB01410F
:100ED000626A41EA8211084394F82C1040EA0161E9
:100EE000C9F8001001203866FFF70EFD044606E041
:100EF0003EE000BFFFF708FD001B022809D8286864
:100F00008001F7D534E000BFFFF7FEFC001B02288C
:100F100002D90320BDE8F88F28688001F4D427E0C7
:100F20000128F7D0D9F80000E26900F4800191426D
:100F30001CD1226A00F03F01914217D147F6C071DF
:100F4000626A0140B1EB821F10D1A26A4FF0FF33F9
:100F500000F4403103EB5202B1EB024F06D194F89A
:100F60002C1000F07060B0EB016F01D00120D1E7D0
:100F70000020CFE70438024000004742800E47427D
:100F8000007000400000FFFF10B5401EB0F1807FF0
:100F900001D3012010BD4FF0E02460610F216017E4
:100FA00000F08BFC0020A06107202061002010BD14
:100FB00070477047F8B5016804460868CA684B690D
:100FC00010F00F0F4FF0000559D003F0010602F4A6
:100FD0009077374365D0C10705D0D10503D5216C83
:100FE00041F001012164410705D5D90703D0216CE7
:100FF00041F002012164810705D5D90703D0216C96
:1010000041F004012164010707D502F020013143BA
:1010100003D0216C41F008012164216C00293AD0F1
:10102000800604D5900602D5204600F0FEFA20681E
:101030004069216CC0F38010090700D460B32046DA
:1010400000F0CCFA20684069400621D520681430B1
:1010500050E8001F21F0400140E80012002AF5D1BD
:10106000A06BA8B16C490165A06BFFF74BFB002892
:1010700011D0A06B016D01B0BDE8F04008478306B8
:101080000FD593060DD52046BDE8F84000F0CDBA47
:101090002046FFF78EFFF8BD2046FFF78AFF256444
:1010A000F8BD266B2023012E79D1C60677D5D6064A
:1010B00075D50868486800904869400640D5A16B1E
:1010C000086840680004000CEAD0A28D8242E7D98B
:1010D000E085C869B0F5807F2DD020680C3050E8DD
:1010E000001F21F4807140E80012002AF5D1206829
:1010F000143050E8001F21F0010140E80012002ADE
:10110000F5D12068143050E8001F21F0400140E87C
:101110000012002AF5D184F83E30256320680C3097
:1011200050E8001F21F0100140E80012002AF5D11C
:10113000A06BFFF79EFAA08DE18D401A81B229E0E5
:10114000A08DE18D401A81B2E08D0028A8D0002941
:10115000A6D020680C3050E8002F22F4907240E8AE
:101160000026002EF5D12068143050E8002F22F020
:10117000010240E80026002EF5D184F83E302563B8
:1011800020680C3050E8002F22F0100240E80023C5
:10119000002BF5D12046FFF70BFFF8BDFFE7050652
:1011A0002BD5150629D594F83D002128F5D1A06846
:1011B000B0F5805F01D12069B0B1206A411C216285
:1011C000216800784860E08C401E0004000CE08438
:1011D000E3D12068C16821F08001C1602068C16846
:1011E00041F04001C160D8E7206A0088C0F30800E0
:1011F0004860206A801C2062E5E74006CDD5500695
:10120000CBD5CA68204622F04002CA6084F83D303F
:1012100000F051F9C1E70000CD15000870B50400D9
:1012200004D094F83D00002510B106E0012070BD07
:1012300084F83C50204600F023F8242084F83D0038
:101240002068C16821F40051C160204600F04EFAC8
:101250002068016921F4904101612068416921F011
:101260002A0141612068C16841F40051C1602564D0
:10127000202084F83D0084F83E00002070BD00006E
:1012800010B586B0044614216846FFF714F91749D3
:101290002068884228D116480021026842F40032B2
:1012A0000260006800F400300590114810380268B0
:1012B00042F001020260006800F0010005900C207D
:1012C00000900220CDE90101032003900720049043
:1012D00069460848FFF728FA002211462620FFF742
:1012E00081FB2620FFF770FB06B010BD00440040D4
:1012F000403802400000024090F83E30202B0ED1D2
:1013000059B152B190F83C30012B08D0012380F83C
:101310003C300023036300F06FBA012070470220C5
:10132000704700002DE9F00F3349006809688842D2
:101330005FD132484FF0010B4FF00009017811B135
:10134000012904D041E080F800B080F801902C4AD7
:10135000837801799A46D154A1F13002092A08D83C
:1013600002696FF02F0302EB820203EB42020A4490
:101370000261234A643220290AD18168036942F854
:101380002130491CC0F810908160C168491CC160BF
:10139000C6680023751E13E00021F41A641E0CE0D9
:1013A00002EB810852F82170D8F804C0674503DDCC
:1013B00042F821C0C8F80470491C8C42F0DC5B1C68
:1013C000AB42E9DB0AF1010181700179702908D192
:1013D0000178012905D180F8009080F801B080F8EB
:1013E00003B0BDE8F00F05490122091D0248FFF7CF
:1013F00083BFBDE8F00F70471802002000000020F6
:10140000240000202DE9F843044690F83D001F46D3
:1014100016460D4620284CD1C5B1BEB194F83C000B
:10142000012846D0012084F83C004FF00008C4F8A1
:101430004080212084F83D00FFF766FAA6848146AB
:10144000E684A068B0F5805F03D004E00120BDE829
:10145000F883206928B12E465FF0000584F83C80AF
:101460000EE00026FAE78021204600F0E2F9A0B95C
:10147000AEB116F8010B21684860E08C401EE08494
:10148000E08C4B464FF0000200970028EBD14FF064
:101490004001204600F0CDF930B10320D7E735F800
:1014A000020BC0F30800E6E7202084F83D0000208E
:1014B000CDE70220CBE77047FEE70000094808B5FA
:1014C000016841F080010160016801F08001009134
:1014D000016841F001010160006800F00100009026
:1014E00008BD0000303802400C4810B50A490160C0
:1014F0004FF4E1314160002181600C22C160C0E9FC
:1015000004128161C161FFF789FE002803D0BDE8A4
:101510001040FFF7ACB810BD004400401802002096
:10152000FEE7FEE770477047FFF7F4B930B593B0B8
:1015300030216846FEF7BFFF14210CA8FEF7BBFF61
:101540001C480025016841F080510160006800F0EE
:10155000805011901848016841F4404101600068D2
:10156000022400F4404011900120009000040190FA
:101570008001CDE9064008AA0420642182E8130016
:101580000B906846FFF74AFB08B172B6FEE70CA95C
:101590000F2081E831004FF48050CDE90F05032181
:1015A0000CA8FFF751FA002801D072B6FEE713B07D
:1015B00030BD000040380240007000400248016821
:1015C00041F470010160704788ED00E010B5806B58
:1015D0000021C185C184FFF7ECFC10BD01680C310E
:1015E00051E8002F22F4907241E80023002BF5D13E
:1015F0000168143151E8002F22F0010241E8002374
:10160000002BF5D1016B012909D101680C3151E89A
:10161000002F22F0100241E80023002BF5D12021F9
:1016200080F83E1000210163704708B590F83E1025
:10163000222901D0022008BD82684FF480539A42CB
:1016400001D1016921B1816A9A421BD04AB10AE0F5
:101650000268816A5268C2F308020A80816A891CA2
:1016600008E0026972B10268526802F07F020A70F3
:10167000816A491C8162C18D491E0904090CC1851A
:1016800003D019E002685268F1E70168CA6822F0E5
:101690002002CA600168CA6822F48072CA600168C8
:1016A0004A6922F001024A61202180F83E10016B54
:1016B000012903D0FFF736FE002008BD0021016399
:1016C00001680C3151E8002F22F0100241E800239C
:1016D000002BF5D101680A68D20602D50A6849686C
:1016E0000091818DFFF764FCE6E7000070B50446C9
:1016F00000680169E26821F44051114301612169E8
:10170000A068E26908436169114308432168CA6817
:1017100049F20C639A430243CA6020684169A26996
:1017200021F440711143416131492068884202D05F
:101730003049884202D1FFF731FA01E0FFF71EFA83
:10174000E2690023192164253226B2F5004F626850
:1017500028D0A0FB0101930F9200FEF791FD0146F6
:10176000B0FBF5F06FF01802504301EB800006EB80
:101770000010B0FBF5F000F0F002B1FBF5F002EB69
:101780000012B1FBF5F06FF01803584301EB800035
:1017900006EB0010B0FBF5F000F00F0021681044DC
:1017A000886070BDA0FB010192185B41FEF768FDE7
:1017B0000146B0FBF5F00201B1FBF5F06FF0180344
:1017C000584301EB800006EBC000B0FBF5F000F0E1
:1017D000F80002EB4002B1FBF5F0584301EB80004A
:1017E00006EBC000B0FBF5F000F00700D6E7000004
:1017F000001001400014014081628285C2850021F1
:101800000164222280F83E2080F83C10016921B159
:101810000168CA6842F48072CA6001684A6942F08D
:1018200001024A610068C16841F02001C1600020E6
:1018300070472DE9F041984617460E460446069D2E
:1018400027E0681C25D02DB1FFF75EF8A0EB08005B
:10185000A8421ED920680C3050E8001F21F4D07136
:1018600040E80012002AF5D12068143050E8001F2B
:1018700021F0010140E80012002AF5D1202084F86F
:101880003D0084F83E00002084F83C000320BDE8C1
:10189000F0812068006836EA000004D00020B842D9
:1018A000CFD00020F3E70120F9E700000148FFF75F
:1018B00081BB000018020020FEE70907090E00287E
:1018C00004DB00F1E02080F80014704700F00F0006
:1018D00000F1E02080F8141D704700000EB5FFF7FE
:1018E00021F8FFF723FEFFF7E9FDFFF7FDFD0122D9
:1018F00015491648FFF700FD134C241FE078012816
:10190000FCD10025124E09E056F8252011A16846A9
:10191000FEF72EFD684600F025F86D1CE068854254
:10192000F2DB0EA000F01EF80025A5700848A560A7
:1019300064216438E560FEF7BEFD64210448FEF7CB
:10194000BAFDE570DAE7000004000020180200206C
:10195000880000200A25640A0000000046696E69BC
:1019600073680A0010B50446FEF786FD2146C2B230
:10197000BDE810404FF4FA630148FFF743BD000093
:10198000180200204FF04070E1EE100A704700008E
:10199000000000000000010203040607080900001F
:1019A0000000010203040000C81900080000002024
:1019B00024000000D4010008EC19000824000020D5
:1019C0009C080000F001000800000000000000007A
:1019D0000000000000000000000000000100000006
:0C19E00010000000000000000024F400D3
:040000050800019955
:00000001FF
